{"abi":[{"type":"constructor","inputs":[{"name":"proposalLedger_","type":"address","internalType":"address"}],"stateMutability":"nonpayable"},{"type":"function","name":"createProject","inputs":[{"name":"protocolHash","type":"bytes32","internalType":"bytes32"},{"name":"repoSnapshotHash","type":"bytes32","internalType":"bytes32"},{"name":"benchmarkHash","type":"bytes32","internalType":"bytes32"},{"name":"baselineAggregateScore","type":"int256","internalType":"int256"},{"name":"baselineMetricsHash","type":"bytes32","internalType":"bytes32"},{"name":"tokenName","type":"string","internalType":"string"},{"name":"tokenSymbol","type":"string","internalType":"string"},{"name":"basePrice","type":"uint256","internalType":"uint256"},{"name":"slope","type":"uint256","internalType":"uint256"},{"name":"minerPoolCap","type":"uint256","internalType":"uint256"}],"outputs":[{"name":"projectId","type":"uint256","internalType":"uint256"},{"name":"tokenAddr","type":"address","internalType":"address"}],"stateMutability":"nonpayable"},{"type":"function","name":"currentBestAggregateScore","inputs":[{"name":"projectId","type":"uint256","internalType":"uint256"}],"outputs":[{"name":"","type":"int256","internalType":"int256"}],"stateMutability":"view"},{"type":"function","name":"getProject","inputs":[{"name":"projectId","type":"uint256","internalType":"uint256"}],"outputs":[{"name":"","type":"tuple","internalType":"struct IProjectRegistry.Project","components":[{"name":"protocolHash","type":"bytes32","internalType":"bytes32"},{"name":"repoSnapshotHash","type":"bytes32","internalType":"bytes32"},{"name":"benchmarkHash","type":"bytes32","internalType":"bytes32"},{"name":"baselineAggregateScore","type":"int256","internalType":"int256"},{"name":"baselineMetricsHash","type":"bytes32","internalType":"bytes32"},{"name":"currentBestCodeHash","type":"bytes32","internalType":"bytes32"},{"name":"currentBestAggregateScore","type":"int256","internalType":"int256"},{"name":"currentBestMetricsHash","type":"bytes32","internalType":"bytes32"},{"name":"currentBestMiner","type":"address","internalType":"address"},{"name":"token","type":"address","internalType":"address"},{"name":"creator","type":"address","internalType":"address"},{"name":"createdAt","type":"uint64","internalType":"uint64"}]}],"stateMutability":"view"},{"type":"function","name":"nextProjectId","inputs":[],"outputs":[{"name":"","type":"uint256","internalType":"uint256"}],"stateMutability":"view"},{"type":"function","name":"proposalLedger","inputs":[],"outputs":[{"name":"","type":"address","internalType":"address"}],"stateMutability":"view"},{"type":"function","name":"tokenOf","inputs":[{"name":"projectId","type":"uint256","internalType":"uint256"}],"outputs":[{"name":"","type":"address","internalType":"address"}],"stateMutability":"view"},{"type":"function","name":"updateBest","inputs":[{"name":"projectId","type":"uint256","internalType":"uint256"},{"name":"miner","type":"address","internalType":"address"},{"name":"newAggregateScore","type":"int256","internalType":"int256"},{"name":"newCodeHash","type":"bytes32","internalType":"bytes32"},{"name":"newMetricsHash","type":"bytes32","internalType":"bytes32"}],"outputs":[],"stateMutability":"nonpayable"},{"type":"event","name":"BestUpdated","inputs":[{"name":"projectId","type":"uint256","indexed":true,"internalType":"uint256"},{"name":"miner","type":"address","indexed":true,"internalType":"address"},{"name":"newAggregateScore","type":"int256","indexed":false,"internalType":"int256"},{"name":"codeHash","type":"bytes32","indexed":false,"internalType":"bytes32"},{"name":"metricsHash","type":"bytes32","indexed":false,"internalType":"bytes32"}],"anonymous":false},{"type":"event","name":"ProjectCreated","inputs":[{"name":"projectId","type":"uint256","indexed":true,"internalType":"uint256"},{"name":"creator","type":"address","indexed":true,"internalType":"address"},{"name":"token","type":"address","indexed":false,"internalType":"address"},{"name":"protocolHash","type":"bytes32","indexed":false,"internalType":"bytes32"}],"anonymous":false},{"type":"error","name":"LedgerZero","inputs":[]},{"type":"error","name":"NotLedger","inputs":[]},{"type":"error","name":"ScoreNotImproved","inputs":[]},{"type":"error","name":"UnknownProject","inputs":[]}],"bytecode":{"object":"0x60a03461009057601f611d3138819003918201601f19168301916001600160401b038311848410176100945780849260209460405283398101031261009057516001600160a01b038116808203610090571561007e57608052604051611c8890816100a9823960805181818161024a01528181610451015261059f0152f35b604051632746202d60e21b8152600490fd5b5f80fd5b634e487b7160e01b5f52604160045260245ffdfe6080806040526004361015610012575f80fd5b5f3560e01c9081633b8673e7146105ce575080637fbf85e71461058a578063c98928881461037d578063e935b7b114610360578063ea78803f1461032c578063ef8a01b4146102135763f0f3f2c814610069575f80fd5b3461020f57602036600319011261020f575f610160610086610644565b8281528260208201528260408201528260608201528260808201528260a08201528260c08201528260e082015282610100820152826101208201528261014082015201526004355f525f60205261018060405f2067ffffffffffffffff6101606100ee610644565b82600a85549586845260018101546020850152600281015460408501526003810154606085015260048101546080850152600581015460a0850152600681015460c0850152600781015460e085015260018060a01b0360088201541661010085015260018060a01b03600982015416610120850152015460018060a01b03811661014084015260a01c16828201526040519384526020810151602085015260408101516040850152606081015160608501526080810151608085015260a081015160a085015260c081015160c085015260e081015160e085015260018060a01b036101008201511661010085015260018060a01b036101208201511661012085015260018060a01b0361014082015116610140850152015116610160820152f35b5f80fd5b3461020f5760a036600319011261020f576001600160a01b03602435818116916004359183900361020f57606435906044356084357f00000000000000000000000000000000000000000000000000000000000000008316330361031a57845f525f60205260405f20926009840154161561030857600683019384548313156102f6576008606094847f0ce501a73e88bb8e462de407d174dfb21819b47ccc29dc46de745446a3fab2dc975582600582015583600782015501876bffffffffffffffffffffffff60a01b82541617905560405192835260208301526040820152a3005b60405163591ab7ed60e01b8152600490fd5b604051636631410f60e01b8152600490fd5b60405163ce1c71c560e01b8152600490fd5b3461020f57602036600319011261020f576004355f525f602052602060018060a01b03600960405f20015416604051908152f35b3461020f575f36600319011261020f576020600154604051908152f35b3461020f5761014036600319011261020f5767ffffffffffffffff60643560843560043560a43584811161020f576103b99036906004016105f6565b939060c43586811161020f576103d39036906004016105f6565b600154969092915f1988146105765760018801600155604051936115ed8086019a868c10908c111761056257859461042a9461041c92610666883960c08d5260c08d0191610624565b918a830360208c0152610624565b60e435604089015261010435606089015261012435608089015260018060a01b039760a0897f00000000000000000000000000000000000000000000000000000000000000001691015203905ff090811561055757604095600a921693855f525f602052865f2091848355602435600184015560443560028401558060038401558160048401555f600584015560068301556007820155600881016bffffffffffffffffffffffff60a01b9081815416905584600983019182541617905501805467ffffffffffffffff60a01b4260a01b169067ffffffffffffffff60a01b1933169063ffffffff60e01b16171790558351908282526020820152827fb2dec8491e891ef9ec892265320dc6e7c7621db5ae1f3e9821c8f784a076142a853393a382519182526020820152f35b6040513d5f823e3d90fd5b634e487b7160e01b5f52604160045260245ffd5b634e487b7160e01b5f52601160045260245ffd5b3461020f575f36600319011261020f576040517f00000000000000000000000000000000000000000000000000000000000000006001600160a01b03168152602090f35b3461020f57602036600319011261020f576020906004355f525f8252600660405f2001548152f35b9181601f8401121561020f5782359167ffffffffffffffff831161020f576020838186019501011161020f57565b908060209392818452848401375f828201840152601f01601f1916010190565b60405190610180820182811067ffffffffffffffff8211176105625760405256fe61010060405234620003db57620015ed803803806200001e81620003df565b92833981019060c081830312620003db5780516001600160401b0390818111620003db57836200005091840162000405565b926020908184015190838211620003db576200006e91850162000405565b9360408401519160608501519360a060808701519601519660018060a01b0388168803620003db578351828111620002e6576003918254916001968784811c94168015620003d0575b87851014620003bc578190601f9485811162000369575b50879085831160011462000306575f92620002fa575b50505f1982861b1c191690871b1783555b8051938411620002e65760049485548781811c91168015620002db575b82821014620002c8579081848796959493116200026f575b50809285116001146200020557505f93620001f9575b505082851b925f19911b1c19161790555b7f9b779b17422d0df92223018b32b4d1fa46e071723d6817e2486d003becc55f005560805260a05260c05260e05260405161117790816200047682396080518181816103d5015281816105b801528181610c2101528181610e060152610eaf015260a051818181610592015281816106f601528181610c480152610dd6015260c0518181816101700152610934015260e0518181816101390152818161034a015261072d0152f35b015191505f8062000140565b929190879550601f198516875f52845f20945f905b8282106200025557505085116200023b575b50505050811b01905562000151565b01519060f8845f19921b161c191690555f8080806200022c565b8484015187558a989096019593840193908101906200021a565b909192939450865f52815f208480880160051c820192848910620002be575b918a91899897969594930160051c01915b828110620002af5750506200012a565b5f81558897508a91016200029f565b925081926200028e565b602287634e487b7160e01b5f525260245ffd5b90607f169062000112565b634e487b7160e01b5f52604160045260245ffd5b015190505f80620000e4565b90899350601f19831691875f52895f20925f5b8b8282106200035257505084116200033a575b505050811b018355620000f5565b01515f1983881b60f8161c191690555f80806200032c565b8385015186558d9790950194938401930162000319565b909150855f52875f208580850160051c8201928a8610620003b2575b918b91869594930160051c01915b828110620003a3575050620000ce565b5f81558594508b910162000393565b9250819262000385565b634e487b7160e01b5f52602260045260245ffd5b93607f1693620000b7565b5f80fd5b6040519190601f01601f191682016001600160401b03811183821017620002e657604052565b919080601f84011215620003db5782516001600160401b038111620002e6576020906200043b601f8201601f19168301620003df565b92818452828287010111620003db575f5b818110620004615750825f9394955001015290565b85810183015184820184015282016200044c56fe608060409080825260049081361015610016575f80fd5b5f3560e01c90816306fdde0314610a0057508063095ea7b3146109575780630da4412c1461091d57806316ade3ab146108ff57806318160ddd146108e157806323b872dd146107f0578063313ce567146107d657806344523922146107b45780634beb394c1461079257806370a082311461075c5780637fbf85e71461071957806383caf275146106df57806395d89b41146105dc5780639dab205414610573578063a64190c41461052d578063a6f2ae3a14610428578063a9059cbb146103f8578063c7876ea4146103be578063d49b3f7f14610332578063dd62ed3e146102e9578063e4849b32146101fb5763fa607f6514610112575f80fd5b346101f757816003193601126101f75761012a610b3a565b602435926001600160a01b03927f0000000000000000000000000000000000000000000000000000000000000000841633036101e9576005549061016e8683610bd0565b7f0000000000000000000000000000000000000000000000000000000000000000106101db5750917fc28fbed34711840d01abbd47c84d27a1a885a7f1bf0f46b33056e271cb8f445b93916101c586602095610bd0565b6005556101d28683610f25565b519485521692a2005b825163053be18f60e21b8152fd5b905163ce1c71c560e01b8152fd5b5f80fd5b5090346101f75760203660031901126101f757813590610219610ee3565b81156102da576002548083116102ca57806102378461023c93610b9c565b610bfb565b916102478133610f82565b5f80808086335af1610257610cb5565b50156102ba5760209350815190815282848201527fbac9694ac0daa55169abd117086fe32c89401d9a3b15dd1d34e55e0aa4e47a9d823392a260017f9b779b17422d0df92223018b32b4d1fa46e071723d6817e2486d003becc55f005551908152f35b815163ab78908560e01b81528490fd5b815163b92e052f60e01b81528490fd5b51631f2a200560e01b81529050fd5b82346101f757806003193601126101f757602090610305610b3a565b61030d610b50565b9060018060a01b038091165f5260018452825f2091165f528252805f20549051908152f35b5090346101f75760203660031901126101f7578135917f0000000000000000000000000000000000000000000000000000000000000000906001600160a01b03821633036103b0577f9ff215781bff5b0a25afcd63bd499c4820a733664a93116274ae97392439993a602085856103a98287610f82565b51908152a1005b825163ce1c71c560e01b8152fd5b82346101f7575f3660031901126101f757602090517f00000000000000000000000000000000000000000000000000000000000000008152f35b82346101f757806003193601126101f757602090610421610417610b3a565b6024359033610cf4565b5160018152f35b50905f3660031901126101f75761043d610ee3565b341561052057600254906104513483610dce565b91821561051057806104668461046c93610bd0565b90610bfb565b6104768333610f25565b6104808134610b9c565b806104e4575b5060209350815190815282848201527fa9a40dec7a304e5915d11358b968c1e8d365992abf20f82285d1df1b30c8e24c823392a260017f9b779b17422d0df92223018b32b4d1fa46e071723d6817e2486d003becc55f005551908152f35b5f80808093335af16104f4610cb5565b50156105005783610486565b8151631453fe1760e21b81528490fd5b815163cd1c886760e01b81528490fd5b51631f2a200560e01b8152fd5b5090346101f75760203660031901126101f75781356002549283821161056557508261023761055e92602095610b9c565b9051908152f35b825163b92e052f60e01b8152fd5b5090346101f75760203660031901126101f75761055e6105b6602093357f0000000000000000000000000000000000000000000000000000000000000000610bbd565b7f0000000000000000000000000000000000000000000000000000000000000000610bd0565b5090346101f7575f3660031901126101f7578051905f9280549060018260011c91600184169384156106d5575b60209485851081146106c2578488529081156106a05750600114610647575b6106438686610639828b0383610b66565b5191829182610af3565b0390f35b5f9081529295507f8a35acfbc15ff81a39ae7d344fd709f28e8600b4aa8c65c6b64bfe7fe36bd19b5b82841061068d57505050826106439461063992820101945f610628565b8054868501880152928601928101610670565b60ff191687860152505050151560051b8301019250610639826106435f610628565b602283634e487b7160e01b5f525260245ffd5b92607f1692610609565b82346101f7575f3660031901126101f757602090517f00000000000000000000000000000000000000000000000000000000000000008152f35b82346101f7575f3660031901126101f757517f00000000000000000000000000000000000000000000000000000000000000006001600160a01b03168152602090f35b82346101f75760203660031901126101f7576020906001600160a01b03610781610b3a565b165f525f8252805f20549051908152f35b5090346101f75760203660031901126101f75761055e60209235600254610dce565b5090346101f757806003193601126101f75761055e6020926024359035610bfb565b82346101f7575f3660031901126101f757602090515f8152f35b50346101f75760603660031901126101f75761080a610b3a565b610812610b50565b906044359260018060a01b038216805f526001602052855f20335f52602052855f2054915f19831061084d575b602087610421888888610cf4565b8583106108b557811561089f57331561088957505f9081526001602090815286822033835281529086902091859003909155829061042161083f565b6024905f885191634a1406b160e11b8352820152fd5b6024905f88519163e602df0560e01b8352820152fd5b8651637dc7a0d960e11b8152339181019182526020820193909352604081018690528291506060010390fd5b82346101f7575f3660031901126101f7576020906002549051908152f35b82346101f7575f3660031901126101f7576020906005549051908152f35b82346101f7575f3660031901126101f757602090517f00000000000000000000000000000000000000000000000000000000000000008152f35b5090346101f757806003193601126101f757610971610b3a565b6024359033156109ea576001600160a01b03169081156109d45760209350335f5260018452825f20825f52845280835f205582519081527f8c5be1e5ebec7d5bd14f71427d1e84f3dd0314c0f7b2291e5b200ac8c7c3b925843392a35160018152f35b8251634a1406b160e11b81525f81860152602490fd5b825163e602df0560e01b81525f81860152602490fd5b905082346101f7575f3660031901126101f7575f9260035460018160011c91600181168015610ae9575b6020948585108214610ad65750838752908115610ab65750600114610a5c575b50505061063982610643940383610b66565b60035f9081529295507fc2575a0e9e593c00f959f8c92f12db2869c3395a3b0502d05e2516446f71f85b5b828410610aa35750505082610643946106399282010194610a4a565b8054868501880152928601928101610a87565b60ff1916868501525050151560051b830101925061063982610643610a4a565b602290634e487b7160e01b5f525260245ffd5b92607f1692610a2a565b602080825282518183018190529093925f5b828110610b2657505060409293505f838284010152601f8019910116010190565b818101860151848201604001528501610b05565b600435906001600160a01b03821682036101f757565b602435906001600160a01b03821682036101f757565b90601f8019910116810190811067ffffffffffffffff821117610b8857604052565b634e487b7160e01b5f52604160045260245ffd5b91908203918211610ba957565b634e487b7160e01b5f52601160045260245ffd5b81810292918115918404141715610ba957565b91908201809211610ba957565b8115610be7570490565b634e487b7160e01b5f52601260045260245ffd5b90818110610c8457610c7882610c72610c17610c819585610b9c565b93610c6c610c45867f0000000000000000000000000000000000000000000000000000000000000000610bbd565b957f0000000000000000000000000000000000000000000000000000000000000000610bbd565b92610bd0565b90610bbd565b60011c90610bd0565b90565b60405162461bcd60e51b81526020600482015260096024820152684241445f52414e474560b81b6044820152606490fd5b3d15610cef573d9067ffffffffffffffff8211610b885760405191610ce4601f8201601f191660200184610b66565b82523d5f602084013e565b606090565b916001600160a01b03808416928315610db65716928315610d9e57825f525f60205260405f205490828210610d6c5750817fddf252ad1be2c89b69c2b068fc378daa952ba7f163c4a11628f55a4df523b3ef92602092855f525f84520360405f2055845f5260405f20818154019055604051908152a3565b60405163391434e360e21b81526001600160a01b03919091166004820152602481019190915260448101829052606490fd5b60405163ec442f0560e01b81525f6004820152602490fd5b604051634b637e8f60e11b81525f6004820152602490fd5b8115610edd577f00000000000000000000000000000000000000000000000000000000000000008015610eab576001600160ff1b03917f00000000000000000000000000000000000000000000000000000000000000008381168103610ba9578260011b9383168303610ba957610e48610e519285610bbd565b9060011b610bd0565b92610e5c8480610bbd565b6001600160fd1b0383168303610ba957610e7f610e8592610e8a9460031b610bbd565b90610bd0565b611021565b82811115610ea457610c8192610e9f91610b9c565b610bdd565b5050505f90565b50507f00000000000000000000000000000000000000000000000000000000000000008015610edd57610c8191610bdd565b50505f90565b7f9b779b17422d0df92223018b32b4d1fa46e071723d6817e2486d003becc55f006002815414610f135760029055565b604051633ee5aeb560e01b8152600490fd5b6001600160a01b0316908115610d9e577fddf252ad1be2c89b69c2b068fc378daa952ba7f163c4a11628f55a4df523b3ef602082610f665f94600254610bd0565b60025584845283825260408420818154019055604051908152a3565b91906001600160a01b038316908115610db657815f525f60205260405f205493818510610fef57506020817fddf252ad1be2c89b69c2b068fc378daa952ba7f163c4a11628f55a4df523b3ef925f95968587528684520360408620558060025403600255604051908152a3565b60405163391434e360e21b81526001600160a01b03919091166004820152602481018590526044810191909152606490fd5b60018082111561113d576110de908083600160801b81101561112b575b80600160401b600492101561111e575b640100000000811015611111575b62010000811015611104575b6101008110156110f8575b60108110156110ec575b10156110e5575b600302811c6110938185610bdd565b01811c6110a08185610bdd565b01811c6110ad8185610bdd565b01811c6110ba8185610bdd565b01811c6110c78185610bdd565b01811c6110d48185610bdd565b01901c8092610bdd565b8111900390565b811b611084565b811c9160021b9161107d565b60081c91811b91611073565b60101c9160081b91611068565b60201c9160101b9161105c565b60401c9160201b9161104e565b50600160401b9050608084901c61103e565b509056fea2646970667358221220bf6f9f5319dfc5260a53cd77592617da29e31dbbd4f00105c29389d5e39e538764736f6c63430008180033a2646970667358221220439be9893351b65d9fd13c1dc66ce449360e151da40b1c9c5348401d2ecb126c64736f6c63430008180033","linkReferences":{}},"methodIdentifiers":{"createProject(bytes32,bytes32,bytes32,int256,bytes32,string,string,uint256,uint256,uint256)":"c9892888","currentBestAggregateScore(uint256)":"3b8673e7","getProject(uint256)":"f0f3f2c8","nextProjectId()":"e935b7b1","proposalLedger()":"7fbf85e7","tokenOf(uint256)":"ea78803f","updateBest(uint256,address,int256,bytes32,bytes32)":"ef8a01b4"},"id":35}