{"abi":[{"type":"constructor","inputs":[{"name":"registry_","type":"address","internalType":"address"},{"name":"verifierRegistry_","type":"address","internalType":"address"}],"stateMutability":"nonpayable"},{"type":"function","name":"BPS_DENOMINATOR","inputs":[],"outputs":[{"name":"","type":"uint16","internalType":"uint16"}],"stateMutability":"view"},{"type":"function","name":"EXPIRY_WINDOW","inputs":[],"outputs":[{"name":"","type":"uint64","internalType":"uint64"}],"stateMutability":"view"},{"type":"function","name":"REVIEW_LOCK","inputs":[],"outputs":[{"name":"","type":"uint64","internalType":"uint64"}],"stateMutability":"view"},{"type":"function","name":"SLASH_BPS_TO_BURN","inputs":[],"outputs":[{"name":"","type":"uint16","internalType":"uint16"}],"stateMutability":"view"},{"type":"function","name":"SLASH_BPS_TO_VERIFIER_POOL","inputs":[],"outputs":[{"name":"","type":"uint16","internalType":"uint16"}],"stateMutability":"view"},{"type":"function","name":"approve","inputs":[{"name":"proposalId","type":"uint256","internalType":"uint256"},{"name":"verifiedAggregateScore","type":"int256","internalType":"int256"},{"name":"metricsHash","type":"bytes32","internalType":"bytes32"}],"outputs":[],"stateMutability":"nonpayable"},{"type":"function","name":"claimReview","inputs":[{"name":"proposalId","type":"uint256","internalType":"uint256"}],"outputs":[],"stateMutability":"nonpayable"},{"type":"function","name":"claimReward","inputs":[{"name":"projectId","type":"uint256","internalType":"uint256"}],"outputs":[{"name":"amount","type":"uint256","internalType":"uint256"}],"stateMutability":"nonpayable"},{"type":"function","name":"claimable","inputs":[{"name":"","type":"uint256","internalType":"uint256"},{"name":"","type":"address","internalType":"address"}],"outputs":[{"name":"","type":"uint256","internalType":"uint256"}],"stateMutability":"view"},{"type":"function","name":"expire","inputs":[{"name":"proposalId","type":"uint256","internalType":"uint256"}],"outputs":[],"stateMutability":"nonpayable"},{"type":"function","name":"getProposal","inputs":[{"name":"proposalId","type":"uint256","internalType":"uint256"}],"outputs":[{"name":"","type":"tuple","internalType":"struct IProposalLedger.Proposal","components":[{"name":"projectId","type":"uint256","internalType":"uint256"},{"name":"miner","type":"address","internalType":"address"},{"name":"rewardRecipient","type":"address","internalType":"address"},{"name":"codeHash","type":"bytes32","internalType":"bytes32"},{"name":"benchmarkLogHash","type":"bytes32","internalType":"bytes32"},{"name":"metricsHash","type":"bytes32","internalType":"bytes32"},{"name":"claimedAggregateScore","type":"int256","internalType":"int256"},{"name":"verifiedAggregateScore","type":"int256","internalType":"int256"},{"name":"stake","type":"uint256","internalType":"uint256"},{"name":"submittedAt","type":"uint64","internalType":"uint64"},{"name":"reviewLockUntil","type":"uint64","internalType":"uint64"},{"name":"reviewer","type":"address","internalType":"address"},{"name":"status","type":"uint8","internalType":"enum IProposalLedger.Status"}]}],"stateMutability":"view"},{"type":"function","name":"nextProposalId","inputs":[],"outputs":[{"name":"","type":"uint256","internalType":"uint256"}],"stateMutability":"view"},{"type":"function","name":"registry","inputs":[],"outputs":[{"name":"","type":"address","internalType":"contract IProjectRegistry"}],"stateMutability":"view"},{"type":"function","name":"reject","inputs":[{"name":"proposalId","type":"uint256","internalType":"uint256"},{"name":"metricsHash","type":"bytes32","internalType":"bytes32"}],"outputs":[],"stateMutability":"nonpayable"},{"type":"function","name":"releaseReview","inputs":[{"name":"proposalId","type":"uint256","internalType":"uint256"}],"outputs":[],"stateMutability":"nonpayable"},{"type":"function","name":"submit","inputs":[{"name":"projectId","type":"uint256","internalType":"uint256"},{"name":"codeHash","type":"bytes32","internalType":"bytes32"},{"name":"benchmarkLogHash","type":"bytes32","internalType":"bytes32"},{"name":"claimedAggregateScore","type":"int256","internalType":"int256"},{"name":"stake","type":"uint256","internalType":"uint256"},{"name":"rewardRecipient","type":"address","internalType":"address"}],"outputs":[{"name":"proposalId","type":"uint256","internalType":"uint256"}],"stateMutability":"nonpayable"},{"type":"function","name":"verifierRegistry","inputs":[],"outputs":[{"name":"","type":"address","internalType":"contract IVerifierRegistry"}],"stateMutability":"view"},{"type":"event","name":"ProposalApproved","inputs":[{"name":"id","type":"uint256","indexed":true,"internalType":"uint256"},{"name":"verifier","type":"address","indexed":true,"internalType":"address"},{"name":"verifiedAggregateScore","type":"int256","indexed":false,"internalType":"int256"},{"name":"metricsHash","type":"bytes32","indexed":false,"internalType":"bytes32"}],"anonymous":false},{"type":"event","name":"ProposalExpired","inputs":[{"name":"id","type":"uint256","indexed":true,"internalType":"uint256"},{"name":"cranker","type":"address","indexed":true,"internalType":"address"}],"anonymous":false},{"type":"event","name":"ProposalRejected","inputs":[{"name":"id","type":"uint256","indexed":true,"internalType":"uint256"},{"name":"verifier","type":"address","indexed":true,"internalType":"address"},{"name":"metricsHash","type":"bytes32","indexed":false,"internalType":"bytes32"}],"anonymous":false},{"type":"event","name":"ProposalSubmitted","inputs":[{"name":"id","type":"uint256","indexed":true,"internalType":"uint256"},{"name":"projectId","type":"uint256","indexed":true,"internalType":"uint256"},{"name":"miner","type":"address","indexed":true,"internalType":"address"},{"name":"rewardRecipient","type":"address","indexed":false,"internalType":"address"},{"name":"codeHash","type":"bytes32","indexed":false,"internalType":"bytes32"},{"name":"claimedAggregateScore","type":"int256","indexed":false,"internalType":"int256"},{"name":"stake","type":"uint256","indexed":false,"internalType":"uint256"}],"anonymous":false},{"type":"event","name":"ReviewClaimed","inputs":[{"name":"id","type":"uint256","indexed":true,"internalType":"uint256"},{"name":"verifier","type":"address","indexed":true,"internalType":"address"},{"name":"reviewLockUntil","type":"uint64","indexed":false,"internalType":"uint64"}],"anonymous":false},{"type":"event","name":"ReviewReleased","inputs":[{"name":"id","type":"uint256","indexed":true,"internalType":"uint256"}],"anonymous":false},{"type":"event","name":"RewardClaimed","inputs":[{"name":"projectId","type":"uint256","indexed":true,"internalType":"uint256"},{"name":"account","type":"address","indexed":true,"internalType":"address"},{"name":"amount","type":"uint256","indexed":false,"internalType":"uint256"}],"anonymous":false},{"type":"event","name":"StakeSlashed","inputs":[{"name":"id","type":"uint256","indexed":true,"internalType":"uint256"},{"name":"beneficiary","type":"address","indexed":true,"internalType":"address"},{"name":"toVerifierPool","type":"uint256","indexed":false,"internalType":"uint256"},{"name":"burned","type":"uint256","indexed":false,"internalType":"uint256"}],"anonymous":false},{"type":"error","name":"ExpiryNotReached","inputs":[]},{"type":"error","name":"LockActive","inputs":[]},{"type":"error","name":"LockExpired","inputs":[]},{"type":"error","name":"NotVerifier","inputs":[]},{"type":"error","name":"NothingToClaim","inputs":[]},{"type":"error","name":"ReentrancyGuardReentrantCall","inputs":[]},{"type":"error","name":"RegistryZero","inputs":[]},{"type":"error","name":"SafeERC20FailedOperation","inputs":[{"name":"token","type":"address","internalType":"address"}]},{"type":"error","name":"ScoreNotImproved","inputs":[]},{"type":"error","name":"UnknownProject","inputs":[]},{"type":"error","name":"UnknownProposal","inputs":[]},{"type":"error","name":"VerifierRegistryZero","inputs":[]},{"type":"error","name":"WrongReviewer","inputs":[]},{"type":"error","name":"WrongStatus","inputs":[]},{"type":"error","name":"ZeroStake","inputs":[]}],"bytecode":{"object":"0x60c03461010d57601f61147c38819003918201601f19168301916001600160401b0383118484101761011157808492604094855283398101031261010d57610052602061004b83610125565b9201610125565b60017f9b779b17422d0df92223018b32b4d1fa46e071723d6817e2486d003becc55f00556001600160a01b03918216919082156100fb57169081156100e95760805260a052604051611342908161013a82396080518181816104bf015281816105f201528181610a0901528181610cd50152611178015260a0518181816109060152818161097d01528181610d3f0152610e920152f35b604051632c54bfbb60e01b8152600490fd5b604051637946f0e560e01b8152600490fd5b5f80fd5b634e487b7160e01b5f52604160045260245ffd5b51906001600160a01b038216820361010d5756fe60806040526004361015610011575f80fd5b5f803560e01c80630696c67414610fd15780630d23482b14610fb45780632ab09d1414610f975780633e3f1b9814610e605780636be1320b14610d045780637b10399914610cc05780637b322d431461093557806386a23a6b146108f057806398795cb91461083f578063a0c7f71c146107f4578063a8d269ba14610591578063ae169a501461044c578063bf81bf4314610329578063c7f758a814610117578063e1a45218146100fa578063f6e2f5e0146100f55763fd5a0898146100d5575f80fd5b346100f257806003193601126100f2576020604051620151808152f35b80fd5b610fd1565b50346100f257806003193601126100f25760206040516127108152f35b50346100f25760203660031901126100f2578061018060405161013981611014565b8281528260208201528260408201528260608201528260808201528260a08201528260c08201528260e082015282610100820152826101208201528261014082015282610160820152015260043581528060205260408120600a604051916101a083611014565b8054835260018060a01b03600182015416602084015260018060a01b0360028201541660408401526003810154606084015260048101546080840152600581015460a0840152600681015460c0840152600781015460e084015260088101546101008401526001600160401b03600982015481811661012086015260401c16610140840152015460018060a01b038116610160830152600560ff8260a01c1610156103155760ff9060a01c16610180820152610180604051918051835260018060a01b03602082015116602084015260018060a01b036040820151166040840152606081015160608401526080810151608084015260a081015160a084015260c081015160c084015260e081015160e08401526101008101516101008401526001600160401b03610120820151166101208401526001600160401b036101408201511661014084015260018060a01b036101608201511661016084015201516005811015610315576101a09250610180820152f35b634e487b7160e01b83526021600452602483fd5b50346100f25760203660031901126100f2576004356103466110b1565b61034f81611088565b600a81019081549160ff8360a01c16600581101561043857801515908161042c575b5061041a576001600160401b0360098301541662093a8081018091116104065742106103f4576103ba92600160a21b9060ff60a01b1916179055600881549101543391846110e0565b33907fa07726147f0c03d4479e98c14466ffc4f275943ad74baa7e6bd84b99b02c80dc8380a360015f805160206112ed8339815191525580f35b60405163056c934760e01b8152600490fd5b634e487b7160e01b5f52601160045260245ffd5b604051638e78f0cb60e01b8152600490fd5b6001915014155f610371565b634e487b7160e01b86526021600452602486fd5b50346100f257602090816003193601126100f25760043561046b6110b1565b8082526002835260408220335f52835260405f205491821561057f578181526002845260408120335f5284528060405f205560018060a01b0360405163ea78803f60e01b81528360048201528581602481857f0000000000000000000000000000000000000000000000000000000000000000165afa92831561057357916104ff9391869392610544575b5033911661126e565b604051908282527f24b5efa61dd1cfc659205a97fb8ed868f3cb8c81922bab2b96423e5de1de2cb7843393a360015f805160206112ed83398151915255604051908152f35b610565919250873d891161056c575b61055d8183611030565b810190611069565b905f6104f6565b503d610553565b604051903d90823e3d90fd5b6040516312d37ee560e31b8152600490fd5b50346100f25760c03660031901126100f25760a4356001600160a01b03818116926004356084356064356024358787036107f0576105cd6110b1565b82156107de5760405163ea78803f60e01b8152600481018590526020989089816024817f00000000000000000000000000000000000000000000000000000000000000008c165afa9081156107d35790889188916107b6575b50169687156107a4576040516323b872dd60e01b8852336004523060245260448690528a88606481808d5af1986001998a8a5114811615610786575b8260405289606052156107715750508754985f198a1461075d578989018955898852878b52604090972086815580890180546001600160a01b0319908116331790915597600a93919291610757575033905b60028301911680988254161790558260038201556044356004820155836006820155846008820155600981016001600160401b0342166001600160401b03198254161790550160ff60a01b1981541690556040519485528785015260408401526060830152837fa4d1f389c1635fe17c6493eee8acde220dda5aadbe29927b54e459fb84e9514460803394a45f805160206112ed83398151915255604051908152f35b906106b4565b634e487b7160e01b88526011600452602488fd5b635274afe760e01b8252600482015260249150fd5b8a81151661079b57813b15153d151616610662565b823d8b823e3d90fd5b604051636631410f60e01b8152600490fd5b6107cd91508b3d8d1161056c5761055d8183611030565b5f610626565b6040513d89823e3d90fd5b60405163150a67e960e01b8152600490fd5b5f80fd5b50346100f25760403660031901126100f2576024356001600160a01b03811691908290036107f0576040906004358152600260205220905f52602052602060405f2054604051908152f35b50346100f25760203660031901126100f25760043561085d81611088565b600a81019081549060ff8260a01c1660058110156104385760010361041a57600901918254916001600160401b038360401c1642106108de576001600160a81b03191690556fffffffffffffffff0000000000000000191690557ff2e4723ce76a75a1aecdca2ef91820efe9fb7f9e0c45afd00058375f0d9567748280a280f35b6040516308250dcf60e11b8152600490fd5b50346100f257806003193601126100f2576040517f00000000000000000000000000000000000000000000000000000000000000006001600160a01b03168152602090f35b50346107f05760603660031901126107f0576040516306620a4360e31b8152336004828101919091526024803592913591604435916020916001600160a01b039190838183817f000000000000000000000000000000000000000000000000000000000000000087165afa908115610c00575f91610c93575b5015610c81576109bc6110b1565b6109c585611088565b90600a82019283549360ff8560a01c166005811015610c6e5760010361041a573382861603610c5c576001600160401b03600985015460401c16421015610c4a57817f00000000000000000000000000000000000000000000000000000000000000001690845495604051633b8673e760e01b815287600482015288818781875afa908115610c00575f91610c1d575b508b1315610c0b5760ff60a01b1916600160a11b17905560078401899055600584018790556001840180546003860154919691908416833b156107f05760405192633be2806d60e21b84526004840152858301528a604483015260648201528760848201525f8160a48183865af18015610c0057610be5575b5090839291868b969554846040518094819363ea78803f60e01b835260048301525afa8015610bda578280916002938991610bbd575b501695541693610b1b60088201958654908861126e565b015416915492803b15610bae57849283604492604051968795869463fa607f6560e01b865260048601528401525af18015610bb257610b9a575b50506040519384528301527ff9864651f73eb83c9c04a32bbfc01af358477185c47e3f04895a7bc34efc95fa60403393a360015f805160206112ed8339815191525580f35b610ba390610fed565b610bae57845f610b55565b8480fd5b6040513d84823e3d90fd5b610bd491508a3d8c1161056c5761055d8183611030565b5f610b04565b6040513d88823e3d90fd5b610bf491959493929a50610fed565b5f98909192935f610ace565b6040513d5f823e3d90fd5b60405163591ab7ed60e01b8152600490fd5b90508881813d8311610c43575b610c348183611030565b810103126107f057515f610a55565b503d610c2a565b6040516307b7d7dd60e51b8152600490fd5b60405163023fd95d60e01b8152600490fd5b83634e487b7160e01b5f5260216004525ffd5b6040516312331aab60e11b8152600490fd5b610cb39150843d8611610cb9575b610cab8183611030565b810190611051565b5f6109ae565b503d610ca1565b346107f0575f3660031901126107f0576040517f00000000000000000000000000000000000000000000000000000000000000006001600160a01b03168152602090f35b346107f05760403660031901126107f0576004356024359060018060a01b036040516306620a4360e31b8152336004820152602081602481857f0000000000000000000000000000000000000000000000000000000000000000165afa908115610c00575f91610e41575b5015610c8157610d7d6110b1565b610d8682611088565b600a810180549260ff8460a01c166005811015610e2d5760010361041a573390841603610c5c576001600160401b03600983015460401c16421015610c4a57610dee92600360a01b9060ff60a01b1916179055836005820155805460083392015490846110e0565b6040519182527f4370f00cf16c399ff46ad6fea4160e752df26de8ed4b78df2b6745999aac98f760203393a360015f805160206112ed83398151915255005b634e487b7160e01b5f52602160045260245ffd5b610e5a915060203d602011610cb957610cab8183611030565b84610d6f565b346107f05760203660031901126107f0576040516306620a4360e31b81523360048281019190915235906020816024817f00000000000000000000000000000000000000000000000000000000000000006001600160a01b03165afa908115610c00575f91610f78575b5015610c8157610ed981611088565b90600a8201805460ff8160a01c166005811015610e2d5761041a576001600160a81b0319163317600160a01b179055426001600160401b0390811662015180019281841161040657600901805467ffffffffffffffff60401b8560401b169067ffffffffffffffff60401b1916179055604051921682527f47637b43a900c544aead1697326f1adc29946c4b44cb43eb5f43e34b2d11739e60203393a3005b610f91915060203d602011610cb957610cab8183611030565b82610eca565b346107f0575f3660031901126107f0576020600154604051908152f35b346107f0575f3660031901126107f057602060405162093a808152f35b346107f0575f3660031901126107f05760206040516113888152f35b6001600160401b03811161100057604052565b634e487b7160e01b5f52604160045260245ffd5b6101a081019081106001600160401b0382111761100057604052565b90601f801991011681019081106001600160401b0382111761100057604052565b908160209103126107f0575180151581036107f05790565b908160209103126107f057516001600160a01b03811681036107f05790565b60015481101561109f575f525f60205260405f2090565b6040516302eae9e560e51b8152600490fd5b5f805160206112ed83398151915260028154146110ce5760029055565b604051633ee5aeb560e01b8152600490fd5b91929092611388808202908282041482151715610406576127109004938482039180831161040657859081611239575b03611152575b507f44daff829d6e05c5c66e7f3a04cc4e8d8351a9b2fb3cddb0848cef8011ee3ce9916040918251958652602086015260018060a01b031693a3565b60405163ea78803f60e01b815260048101919091526001600160a01b03906020816024817f000000000000000000000000000000000000000000000000000000000000000086165afa908115610c00575f9161121a575b501691823b156107f0575f809360246040518096819363d49b3f7f60e01b83528760048401525af1918215610c00577f44daff829d6e05c5c66e7f3a04cc4e8d8351a9b2fb3cddb0848cef8011ee3ce99360409361120b575b50915091611116565b61121490610fed565b5f611202565b611233915060203d60201161056c5761055d8183611030565b5f6111a9565b9050815f52600260205260405f2060018060a01b0385165f5260205260405f2090815487810180911161040657879255611110565b60405163a9059cbb60e01b5f9081526001600160a01b039384166004526024949094529260209060448180855af160015f51148116156112cd575b83604052156112b757505050565b635274afe760e01b835216600482015260249150fd5b60018115166112e357813b15153d1516166112a9565b833d5f823e3d90fdfe9b779b17422d0df92223018b32b4d1fa46e071723d6817e2486d003becc55f00a26469706673582212200db750d35696f6aeee326fad65dc39bbfae5b1ebd036bf0f5a8c67cb95d515b664736f6c63430008180033","linkReferences":{}},"methodIdentifiers":{"BPS_DENOMINATOR()":"e1a45218","EXPIRY_WINDOW()":"0d23482b","REVIEW_LOCK()":"fd5a0898","SLASH_BPS_TO_BURN()":"f6e2f5e0","SLASH_BPS_TO_VERIFIER_POOL()":"0696c674","approve(uint256,int256,bytes32)":"7b322d43","claimReview(uint256)":"3e3f1b98","claimReward(uint256)":"ae169a50","claimable(uint256,address)":"a0c7f71c","expire(uint256)":"bf81bf43","getProposal(uint256)":"c7f758a8","nextProposalId()":"2ab09d14","registry()":"7b103999","reject(uint256,bytes32)":"6be1320b","releaseReview(uint256)":"98795cb9","submit(uint256,bytes32,bytes32,int256,uint256,address)":"a8d269ba","verifierRegistry()":"86a23a6b"},"id":37}