{"abi":[{"type":"constructor","inputs":[{"name":"initialOwner","type":"address","internalType":"address"}],"stateMutability":"nonpayable"},{"type":"function","name":"addVerifier","inputs":[{"name":"v","type":"address","internalType":"address"}],"outputs":[],"stateMutability":"nonpayable"},{"type":"function","name":"isVerifier","inputs":[{"name":"","type":"address","internalType":"address"}],"outputs":[{"name":"","type":"bool","internalType":"bool"}],"stateMutability":"view"},{"type":"function","name":"owner","inputs":[],"outputs":[{"name":"","type":"address","internalType":"address"}],"stateMutability":"view"},{"type":"function","name":"removeVerifier","inputs":[{"name":"v","type":"address","internalType":"address"}],"outputs":[],"stateMutability":"nonpayable"},{"type":"function","name":"renounceOwnership","inputs":[],"outputs":[],"stateMutability":"nonpayable"},{"type":"function","name":"transferOwnership","inputs":[{"name":"newOwner","type":"address","internalType":"address"}],"outputs":[],"stateMutability":"nonpayable"},{"type":"function","name":"verifierCount","inputs":[],"outputs":[{"name":"","type":"uint256","internalType":"uint256"}],"stateMutability":"view"},{"type":"function","name":"verifiers","inputs":[{"name":"","type":"uint256","internalType":"uint256"}],"outputs":[{"name":"","type":"address","internalType":"address"}],"stateMutability":"view"},{"type":"event","name":"OwnershipTransferred","inputs":[{"name":"previousOwner","type":"address","indexed":true,"internalType":"address"},{"name":"newOwner","type":"address","indexed":true,"internalType":"address"}],"anonymous":false},{"type":"event","name":"VerifierAdded","inputs":[{"name":"v","type":"address","indexed":true,"internalType":"address"}],"anonymous":false},{"type":"event","name":"VerifierRemoved","inputs":[{"name":"v","type":"address","indexed":true,"internalType":"address"}],"anonymous":false},{"type":"error","name":"AlreadyRegistered","inputs":[]},{"type":"error","name":"NotRegistered","inputs":[]},{"type":"error","name":"OwnableInvalidOwner","inputs":[{"name":"owner","type":"address","internalType":"address"}]},{"type":"error","name":"OwnableUnauthorizedAccount","inputs":[{"name":"account","type":"address","internalType":"address"}]},{"type":"error","name":"ZeroAddress","inputs":[]}],"bytecode":{"object":"0x6080346100b957601f6105e038819003918201601f19168301916001600160401b038311848410176100bd578084926020946040528339810103126100b957516001600160a01b0390818116908190036100b95780156100a1575f80546001600160a01b03198116831782556040519316907f8be0079c531659141344cd1fd0a4f28419497f9722a3daafe3b4186f6b6457e09080a361050e90816100d28239f35b604051631e4fbdf760e01b81525f6004820152602490fd5b5f80fd5b634e487b7160e01b5f52604160045260245ffdfe6080604090808252600480361015610015575f80fd5b5f3560e01c918263331052181461042857508163715018a6146103d15781638da5cb5b146103aa5781639000b3d6146102c2578163ac1eff6814610282578163ca2dfd0a14610128578163f2fde38b14610099575063fb4adf5214610078575f80fd5b34610095575f366003190112610095576020906002549051908152f35b5f80fd5b8234610095576020366003190112610095576001600160a01b03823581811693919290849003610095576100cb6104ad565b83156101125750505f54826bffffffffffffffffffffffff60a01b8216175f55167f8be0079c531659141344cd1fd0a4f28419497f9722a3daafe3b4186f6b6457e05f80a3005b905f6024925191631e4fbdf760e01b8352820152fd5b823461009557602080600319360112610095576001600160a01b0383358181169490859003610095576101596104ad565b845f526001835260ff845f20541615610274575f85815260018452848120805460ff1916905560038452849020546002545f19929190838101908111610261578085918303610213575b5050506002549081156102005750915f94939160039301906101c482610464565b9091825491861b1b19169055600255848452528120557f44a3cd4eb5cc5748f6169df057b1cb2ae4c383e87cd94663c430e095d4cba4245f80a2005b603190634e487b7160e01b5f525260245ffd5b61021c90610464565b90549060031b1c1661024f8161023184610464565b90919060018060a01b038084549260031b9316831b921b1916179055565b5f5260038552855f20558683816101a3565b601183634e487b7160e01b5f525260245ffd5b835163aba4733960e01b8152fd5b905034610095576020366003190112610095573590600254821015610095576102ac602092610464565b905491519160018060a01b039160031b1c168152f35b82346100955760203660031901126100955781356001600160a01b03811692909190838303610095576102f36104ad565b831561039c57835f52600160205260ff825f20541661038e57835f526001602052815f20600160ff19825416179055600254809260036020525f20556801000000000000000082101561037b5750906102318260016103559401600255610464565b7f6d05492139c5ea989514a5d2150c028041e5c087e2a39967f67dc7d2655adb815f80a2005b604190634e487b7160e01b5f525260245ffd5b9051630ea075bf60e21b8152fd5b905163d92e233d60e01b8152fd5b8234610095575f366003190112610095575f5490516001600160a01b039091168152602090f35b34610095575f366003190112610095576103e96104ad565b5f80546001600160a01b0319811682556001600160a01b03167f8be0079c531659141344cd1fd0a4f28419497f9722a3daafe3b4186f6b6457e08280a3005b91503461009557602036600319011261009557356001600160a01b038116908190036100955760209260ff915f52600184525f20541615158152f35b6002548110156104995760025f527f405787fa12a823e0f2b7631cc41b3ba8828b3321ca811111fa75cd3aa3bb5ace01905f90565b634e487b7160e01b5f52603260045260245ffd5b5f546001600160a01b031633036104c057565b60405163118cdaa760e01b8152336004820152602490fdfea26469706673582212207cbfe3dd294b739295a30181e5e0757edc963fe2ea7f34d5075bc304325dc17f64736f6c63430008180033","linkReferences":{}},"methodIdentifiers":{"addVerifier(address)":"9000b3d6","isVerifier(address)":"33105218","owner()":"8da5cb5b","removeVerifier(address)":"ca2dfd0a","renounceOwnership()":"715018a6","transferOwnership(address)":"f2fde38b","verifierCount()":"fb4adf52","verifiers(uint256)":"ac1eff68"},"id":38}