{"abi":[{"type":"constructor","inputs":[{"name":"name_","type":"string","internalType":"string"},{"name":"symbol_","type":"string","internalType":"string"},{"name":"basePrice_","type":"uint256","internalType":"uint256"},{"name":"slope_","type":"uint256","internalType":"uint256"},{"name":"minerPoolCap_","type":"uint256","internalType":"uint256"},{"name":"proposalLedger_","type":"address","internalType":"address"}],"stateMutability":"nonpayable"},{"type":"function","name":"allowance","inputs":[{"name":"owner","type":"address","internalType":"address"},{"name":"spender","type":"address","internalType":"address"}],"outputs":[{"name":"","type":"uint256","internalType":"uint256"}],"stateMutability":"view"},{"type":"function","name":"approve","inputs":[{"name":"spender","type":"address","internalType":"address"},{"name":"value","type":"uint256","internalType":"uint256"}],"outputs":[{"name":"","type":"bool","internalType":"bool"}],"stateMutability":"nonpayable"},{"type":"function","name":"balanceOf","inputs":[{"name":"account","type":"address","internalType":"address"}],"outputs":[{"name":"","type":"uint256","internalType":"uint256"}],"stateMutability":"view"},{"type":"function","name":"basePrice","inputs":[],"outputs":[{"name":"","type":"uint256","internalType":"uint256"}],"stateMutability":"view"},{"type":"function","name":"burnFromLedger","inputs":[{"name":"amount","type":"uint256","internalType":"uint256"}],"outputs":[],"stateMutability":"nonpayable"},{"type":"function","name":"buy","inputs":[],"outputs":[{"name":"tokensOut","type":"uint256","internalType":"uint256"}],"stateMutability":"payable"},{"type":"function","name":"costBetween","inputs":[{"name":"from","type":"uint256","internalType":"uint256"},{"name":"to","type":"uint256","internalType":"uint256"}],"outputs":[{"name":"","type":"uint256","internalType":"uint256"}],"stateMutability":"view"},{"type":"function","name":"decimals","inputs":[],"outputs":[{"name":"","type":"uint8","internalType":"uint8"}],"stateMutability":"pure"},{"type":"function","name":"minerPoolCap","inputs":[],"outputs":[{"name":"","type":"uint256","internalType":"uint256"}],"stateMutability":"view"},{"type":"function","name":"minerPoolMinted","inputs":[],"outputs":[{"name":"","type":"uint256","internalType":"uint256"}],"stateMutability":"view"},{"type":"function","name":"mintMinerReward","inputs":[{"name":"miner","type":"address","internalType":"address"},{"name":"amount","type":"uint256","internalType":"uint256"}],"outputs":[],"stateMutability":"nonpayable"},{"type":"function","name":"name","inputs":[],"outputs":[{"name":"","type":"string","internalType":"string"}],"stateMutability":"view"},{"type":"function","name":"priceAt","inputs":[{"name":"supply","type":"uint256","internalType":"uint256"}],"outputs":[{"name":"","type":"uint256","internalType":"uint256"}],"stateMutability":"view"},{"type":"function","name":"proposalLedger","inputs":[],"outputs":[{"name":"","type":"address","internalType":"address"}],"stateMutability":"view"},{"type":"function","name":"quoteBuy","inputs":[{"name":"ethIn","type":"uint256","internalType":"uint256"}],"outputs":[{"name":"tokensOut","type":"uint256","internalType":"uint256"}],"stateMutability":"view"},{"type":"function","name":"quoteSell","inputs":[{"name":"tokensIn","type":"uint256","internalType":"uint256"}],"outputs":[{"name":"ethOut","type":"uint256","internalType":"uint256"}],"stateMutability":"view"},{"type":"function","name":"sell","inputs":[{"name":"amount","type":"uint256","internalType":"uint256"}],"outputs":[{"name":"ethOut","type":"uint256","internalType":"uint256"}],"stateMutability":"nonpayable"},{"type":"function","name":"slope","inputs":[],"outputs":[{"name":"","type":"uint256","internalType":"uint256"}],"stateMutability":"view"},{"type":"function","name":"symbol","inputs":[],"outputs":[{"name":"","type":"string","internalType":"string"}],"stateMutability":"view"},{"type":"function","name":"totalSupply","inputs":[],"outputs":[{"name":"","type":"uint256","internalType":"uint256"}],"stateMutability":"view"},{"type":"function","name":"transfer","inputs":[{"name":"to","type":"address","internalType":"address"},{"name":"value","type":"uint256","internalType":"uint256"}],"outputs":[{"name":"","type":"bool","internalType":"bool"}],"stateMutability":"nonpayable"},{"type":"function","name":"transferFrom","inputs":[{"name":"from","type":"address","internalType":"address"},{"name":"to","type":"address","internalType":"address"},{"name":"value","type":"uint256","internalType":"uint256"}],"outputs":[{"name":"","type":"bool","internalType":"bool"}],"stateMutability":"nonpayable"},{"type":"event","name":"Approval","inputs":[{"name":"owner","type":"address","indexed":true,"internalType":"address"},{"name":"spender","type":"address","indexed":true,"internalType":"address"},{"name":"value","type":"uint256","indexed":false,"internalType":"uint256"}],"anonymous":false},{"type":"event","name":"Bought","inputs":[{"name":"buyer","type":"address","indexed":true,"internalType":"address"},{"name":"ethSpent","type":"uint256","indexed":false,"internalType":"uint256"},{"name":"tokensOut","type":"uint256","indexed":false,"internalType":"uint256"}],"anonymous":false},{"type":"event","name":"LedgerBurned","inputs":[{"name":"amount","type":"uint256","indexed":false,"internalType":"uint256"}],"anonymous":false},{"type":"event","name":"MinerRewardMinted","inputs":[{"name":"miner","type":"address","indexed":true,"internalType":"address"},{"name":"amount","type":"uint256","indexed":false,"internalType":"uint256"}],"anonymous":false},{"type":"event","name":"Sold","inputs":[{"name":"seller","type":"address","indexed":true,"internalType":"address"},{"name":"tokensIn","type":"uint256","indexed":false,"internalType":"uint256"},{"name":"ethOut","type":"uint256","indexed":false,"internalType":"uint256"}],"anonymous":false},{"type":"event","name":"Transfer","inputs":[{"name":"from","type":"address","indexed":true,"internalType":"address"},{"name":"to","type":"address","indexed":true,"internalType":"address"},{"name":"value","type":"uint256","indexed":false,"internalType":"uint256"}],"anonymous":false},{"type":"error","name":"ERC20InsufficientAllowance","inputs":[{"name":"spender","type":"address","internalType":"address"},{"name":"allowance","type":"uint256","internalType":"uint256"},{"name":"needed","type":"uint256","internalType":"uint256"}]},{"type":"error","name":"ERC20InsufficientBalance","inputs":[{"name":"sender","type":"address","internalType":"address"},{"name":"balance","type":"uint256","internalType":"uint256"},{"name":"needed","type":"uint256","internalType":"uint256"}]},{"type":"error","name":"ERC20InvalidApprover","inputs":[{"name":"approver","type":"address","internalType":"address"}]},{"type":"error","name":"ERC20InvalidReceiver","inputs":[{"name":"receiver","type":"address","internalType":"address"}]},{"type":"error","name":"ERC20InvalidSender","inputs":[{"name":"sender","type":"address","internalType":"address"}]},{"type":"error","name":"ERC20InvalidSpender","inputs":[{"name":"spender","type":"address","internalType":"address"}]},{"type":"error","name":"EthPayoutFailed","inputs":[]},{"type":"error","name":"EthRefundFailed","inputs":[]},{"type":"error","name":"InsufficientPayment","inputs":[]},{"type":"error","name":"NotLedger","inputs":[]},{"type":"error","name":"OverSupply","inputs":[]},{"type":"error","name":"PoolCapExceeded","inputs":[]},{"type":"error","name":"ReentrancyGuardReentrantCall","inputs":[]},{"type":"error","name":"ZeroAmount","inputs":[]}],"bytecode":{"object":"0x61010060405234620003db57620015ed803803806200001e81620003df565b92833981019060c081830312620003db5780516001600160401b0390818111620003db57836200005091840162000405565b926020908184015190838211620003db576200006e91850162000405565b9360408401519160608501519360a060808701519601519660018060a01b0388168803620003db578351828111620002e6576003918254916001968784811c94168015620003d0575b87851014620003bc578190601f9485811162000369575b50879085831160011462000306575f92620002fa575b50505f1982861b1c191690871b1783555b8051938411620002e65760049485548781811c91168015620002db575b82821014620002c8579081848796959493116200026f575b50809285116001146200020557505f93620001f9575b505082851b925f19911b1c19161790555b7f9b779b17422d0df92223018b32b4d1fa46e071723d6817e2486d003becc55f005560805260a05260c05260e05260405161117790816200047682396080518181816103d5015281816105b801528181610c2101528181610e060152610eaf015260a051818181610592015281816106f601528181610c480152610dd6015260c0518181816101700152610934015260e0518181816101390152818161034a015261072d0152f35b015191505f8062000140565b929190879550601f198516875f52845f20945f905b8282106200025557505085116200023b575b50505050811b01905562000151565b01519060f8845f19921b161c191690555f8080806200022c565b8484015187558a989096019593840193908101906200021a565b909192939450865f52815f208480880160051c820192848910620002be575b918a91899897969594930160051c01915b828110620002af5750506200012a565b5f81558897508a91016200029f565b925081926200028e565b602287634e487b7160e01b5f525260245ffd5b90607f169062000112565b634e487b7160e01b5f52604160045260245ffd5b015190505f80620000e4565b90899350601f19831691875f52895f20925f5b8b8282106200035257505084116200033a575b505050811b018355620000f5565b01515f1983881b60f8161c191690555f80806200032c565b8385015186558d9790950194938401930162000319565b909150855f52875f208580850160051c8201928a8610620003b2575b918b91869594930160051c01915b828110620003a3575050620000ce565b5f81558594508b910162000393565b9250819262000385565b634e487b7160e01b5f52602260045260245ffd5b93607f1693620000b7565b5f80fd5b6040519190601f01601f191682016001600160401b03811183821017620002e657604052565b919080601f84011215620003db5782516001600160401b038111620002e6576020906200043b601f8201601f19168301620003df565b92818452828287010111620003db575f5b818110620004615750825f9394955001015290565b85810183015184820184015282016200044c56fe608060409080825260049081361015610016575f80fd5b5f3560e01c90816306fdde0314610a0057508063095ea7b3146109575780630da4412c1461091d57806316ade3ab146108ff57806318160ddd146108e157806323b872dd146107f0578063313ce567146107d657806344523922146107b45780634beb394c1461079257806370a082311461075c5780637fbf85e71461071957806383caf275146106df57806395d89b41146105dc5780639dab205414610573578063a64190c41461052d578063a6f2ae3a14610428578063a9059cbb146103f8578063c7876ea4146103be578063d49b3f7f14610332578063dd62ed3e146102e9578063e4849b32146101fb5763fa607f6514610112575f80fd5b346101f757816003193601126101f75761012a610b3a565b602435926001600160a01b03927f0000000000000000000000000000000000000000000000000000000000000000841633036101e9576005549061016e8683610bd0565b7f0000000000000000000000000000000000000000000000000000000000000000106101db5750917fc28fbed34711840d01abbd47c84d27a1a885a7f1bf0f46b33056e271cb8f445b93916101c586602095610bd0565b6005556101d28683610f25565b519485521692a2005b825163053be18f60e21b8152fd5b905163ce1c71c560e01b8152fd5b5f80fd5b5090346101f75760203660031901126101f757813590610219610ee3565b81156102da576002548083116102ca57806102378461023c93610b9c565b610bfb565b916102478133610f82565b5f80808086335af1610257610cb5565b50156102ba5760209350815190815282848201527fbac9694ac0daa55169abd117086fe32c89401d9a3b15dd1d34e55e0aa4e47a9d823392a260017f9b779b17422d0df92223018b32b4d1fa46e071723d6817e2486d003becc55f005551908152f35b815163ab78908560e01b81528490fd5b815163b92e052f60e01b81528490fd5b51631f2a200560e01b81529050fd5b82346101f757806003193601126101f757602090610305610b3a565b61030d610b50565b9060018060a01b038091165f5260018452825f2091165f528252805f20549051908152f35b5090346101f75760203660031901126101f7578135917f0000000000000000000000000000000000000000000000000000000000000000906001600160a01b03821633036103b0577f9ff215781bff5b0a25afcd63bd499c4820a733664a93116274ae97392439993a602085856103a98287610f82565b51908152a1005b825163ce1c71c560e01b8152fd5b82346101f7575f3660031901126101f757602090517f00000000000000000000000000000000000000000000000000000000000000008152f35b82346101f757806003193601126101f757602090610421610417610b3a565b6024359033610cf4565b5160018152f35b50905f3660031901126101f75761043d610ee3565b341561052057600254906104513483610dce565b91821561051057806104668461046c93610bd0565b90610bfb565b6104768333610f25565b6104808134610b9c565b806104e4575b5060209350815190815282848201527fa9a40dec7a304e5915d11358b968c1e8d365992abf20f82285d1df1b30c8e24c823392a260017f9b779b17422d0df92223018b32b4d1fa46e071723d6817e2486d003becc55f005551908152f35b5f80808093335af16104f4610cb5565b50156105005783610486565b8151631453fe1760e21b81528490fd5b815163cd1c886760e01b81528490fd5b51631f2a200560e01b8152fd5b5090346101f75760203660031901126101f75781356002549283821161056557508261023761055e92602095610b9c565b9051908152f35b825163b92e052f60e01b8152fd5b5090346101f75760203660031901126101f75761055e6105b6602093357f0000000000000000000000000000000000000000000000000000000000000000610bbd565b7f0000000000000000000000000000000000000000000000000000000000000000610bd0565b5090346101f7575f3660031901126101f7578051905f9280549060018260011c91600184169384156106d5575b60209485851081146106c2578488529081156106a05750600114610647575b6106438686610639828b0383610b66565b5191829182610af3565b0390f35b5f9081529295507f8a35acfbc15ff81a39ae7d344fd709f28e8600b4aa8c65c6b64bfe7fe36bd19b5b82841061068d57505050826106439461063992820101945f610628565b8054868501880152928601928101610670565b60ff191687860152505050151560051b8301019250610639826106435f610628565b602283634e487b7160e01b5f525260245ffd5b92607f1692610609565b82346101f7575f3660031901126101f757602090517f00000000000000000000000000000000000000000000000000000000000000008152f35b82346101f7575f3660031901126101f757517f00000000000000000000000000000000000000000000000000000000000000006001600160a01b03168152602090f35b82346101f75760203660031901126101f7576020906001600160a01b03610781610b3a565b165f525f8252805f20549051908152f35b5090346101f75760203660031901126101f75761055e60209235600254610dce565b5090346101f757806003193601126101f75761055e6020926024359035610bfb565b82346101f7575f3660031901126101f757602090515f8152f35b50346101f75760603660031901126101f75761080a610b3a565b610812610b50565b906044359260018060a01b038216805f526001602052855f20335f52602052855f2054915f19831061084d575b602087610421888888610cf4565b8583106108b557811561089f57331561088957505f9081526001602090815286822033835281529086902091859003909155829061042161083f565b6024905f885191634a1406b160e11b8352820152fd5b6024905f88519163e602df0560e01b8352820152fd5b8651637dc7a0d960e11b8152339181019182526020820193909352604081018690528291506060010390fd5b82346101f7575f3660031901126101f7576020906002549051908152f35b82346101f7575f3660031901126101f7576020906005549051908152f35b82346101f7575f3660031901126101f757602090517f00000000000000000000000000000000000000000000000000000000000000008152f35b5090346101f757806003193601126101f757610971610b3a565b6024359033156109ea576001600160a01b03169081156109d45760209350335f5260018452825f20825f52845280835f205582519081527f8c5be1e5ebec7d5bd14f71427d1e84f3dd0314c0f7b2291e5b200ac8c7c3b925843392a35160018152f35b8251634a1406b160e11b81525f81860152602490fd5b825163e602df0560e01b81525f81860152602490fd5b905082346101f7575f3660031901126101f7575f9260035460018160011c91600181168015610ae9575b6020948585108214610ad65750838752908115610ab65750600114610a5c575b50505061063982610643940383610b66565b60035f9081529295507fc2575a0e9e593c00f959f8c92f12db2869c3395a3b0502d05e2516446f71f85b5b828410610aa35750505082610643946106399282010194610a4a565b8054868501880152928601928101610a87565b60ff1916868501525050151560051b830101925061063982610643610a4a565b602290634e487b7160e01b5f525260245ffd5b92607f1692610a2a565b602080825282518183018190529093925f5b828110610b2657505060409293505f838284010152601f8019910116010190565b818101860151848201604001528501610b05565b600435906001600160a01b03821682036101f757565b602435906001600160a01b03821682036101f757565b90601f8019910116810190811067ffffffffffffffff821117610b8857604052565b634e487b7160e01b5f52604160045260245ffd5b91908203918211610ba957565b634e487b7160e01b5f52601160045260245ffd5b81810292918115918404141715610ba957565b91908201809211610ba957565b8115610be7570490565b634e487b7160e01b5f52601260045260245ffd5b90818110610c8457610c7882610c72610c17610c819585610b9c565b93610c6c610c45867f0000000000000000000000000000000000000000000000000000000000000000610bbd565b957f0000000000000000000000000000000000000000000000000000000000000000610bbd565b92610bd0565b90610bbd565b60011c90610bd0565b90565b60405162461bcd60e51b81526020600482015260096024820152684241445f52414e474560b81b6044820152606490fd5b3d15610cef573d9067ffffffffffffffff8211610b885760405191610ce4601f8201601f191660200184610b66565b82523d5f602084013e565b606090565b916001600160a01b03808416928315610db65716928315610d9e57825f525f60205260405f205490828210610d6c5750817fddf252ad1be2c89b69c2b068fc378daa952ba7f163c4a11628f55a4df523b3ef92602092855f525f84520360405f2055845f5260405f20818154019055604051908152a3565b60405163391434e360e21b81526001600160a01b03919091166004820152602481019190915260448101829052606490fd5b60405163ec442f0560e01b81525f6004820152602490fd5b604051634b637e8f60e11b81525f6004820152602490fd5b8115610edd577f00000000000000000000000000000000000000000000000000000000000000008015610eab576001600160ff1b03917f00000000000000000000000000000000000000000000000000000000000000008381168103610ba9578260011b9383168303610ba957610e48610e519285610bbd565b9060011b610bd0565b92610e5c8480610bbd565b6001600160fd1b0383168303610ba957610e7f610e8592610e8a9460031b610bbd565b90610bd0565b611021565b82811115610ea457610c8192610e9f91610b9c565b610bdd565b5050505f90565b50507f00000000000000000000000000000000000000000000000000000000000000008015610edd57610c8191610bdd565b50505f90565b7f9b779b17422d0df92223018b32b4d1fa46e071723d6817e2486d003becc55f006002815414610f135760029055565b604051633ee5aeb560e01b8152600490fd5b6001600160a01b0316908115610d9e577fddf252ad1be2c89b69c2b068fc378daa952ba7f163c4a11628f55a4df523b3ef602082610f665f94600254610bd0565b60025584845283825260408420818154019055604051908152a3565b91906001600160a01b038316908115610db657815f525f60205260405f205493818510610fef57506020817fddf252ad1be2c89b69c2b068fc378daa952ba7f163c4a11628f55a4df523b3ef925f95968587528684520360408620558060025403600255604051908152a3565b60405163391434e360e21b81526001600160a01b03919091166004820152602481018590526044810191909152606490fd5b60018082111561113d576110de908083600160801b81101561112b575b80600160401b600492101561111e575b640100000000811015611111575b62010000811015611104575b6101008110156110f8575b60108110156110ec575b10156110e5575b600302811c6110938185610bdd565b01811c6110a08185610bdd565b01811c6110ad8185610bdd565b01811c6110ba8185610bdd565b01811c6110c78185610bdd565b01811c6110d48185610bdd565b01901c8092610bdd565b8111900390565b811b611084565b811c9160021b9161107d565b60081c91811b91611073565b60101c9160081b91611068565b60201c9160101b9161105c565b60401c9160201b9161104e565b50600160401b9050608084901c61103e565b509056fea2646970667358221220bf6f9f5319dfc5260a53cd77592617da29e31dbbd4f00105c29389d5e39e538764736f6c63430008180033","linkReferences":{}},"methodIdentifiers":{"allowance(address,address)":"dd62ed3e","approve(address,uint256)":"095ea7b3","balanceOf(address)":"70a08231","basePrice()":"c7876ea4","burnFromLedger(uint256)":"d49b3f7f","buy()":"a6f2ae3a","costBetween(uint256,uint256)":"44523922","decimals()":"313ce567","minerPoolCap()":"0da4412c","minerPoolMinted()":"16ade3ab","mintMinerReward(address,uint256)":"fa607f65","name()":"06fdde03","priceAt(uint256)":"9dab2054","proposalLedger()":"7fbf85e7","quoteBuy(uint256)":"4beb394c","quoteSell(uint256)":"a64190c4","sell(uint256)":"e4849b32","slope()":"83caf275","symbol()":"95d89b41","totalSupply()":"18160ddd","transfer(address,uint256)":"a9059cbb","transferFrom(address,address,uint256)":"23b872dd"},"id":36}